:020000040800F2
:10000000F8060020350200083D0200083F02000803
:1000100041020008430200084502000800000000F9
:10002000000000000000000000000000470200087F
:1000300049020008000000004B0200082D120008D1
:100040004F0200084F0200084F0200084F0200084C
:100050004F0200084F02000825030008590300085A
:100060008D030008C1030008F50300084F020008D3
:100070004F0200084F0200084F0200084F0200081C
:100080004F0200084F020008F102000800000000C3
:100090000000000000000000000000004F02000807
:1000A0004F0200084F0200084F0200084F020008EC
:1000B0004F0200084F0200084F0200084F020008DC
:1000C0004F0200084F0200084F0200084F020008CC
:1000D0004F0200084F0200084F0200080000000015
:1000E0004F0200084F0200084F0200080000000005
:1000F0000000000000000000000000004F020008A7
:10010000000000004F0200084F0200084F020008E4
:1001100000000000000000000000000000000000DF
:100120004F0200084F0200084F0200084F0200086B
:100130004F02000800000000000000000000000066
:100140000000000000000000000000004F02000856
:100150004F0200084F0200084F0200084F0200083B
:100160004F0200084F0200080000000000000000DD
:10017000000000000000000000000000000000007F
:10018000000000004F020008000000000000000016
:100190004F02000800F002F800F03CF80AA090E8D6
:1001A000000C82448344AAF10107DA4501D100F032
:1001B00031F8AFF2090EBAE80F0013F0010F18BFC3
:1001C000FB1A43F00103184794110000B41100001A
:1001D000103A24BF78C878C1FAD8520724BF30C873
:1001E00030C144BF04680C60704700000023002445
:1001F00000250026103A28BF78C1FBD8520728BF37
:1002000030C148BF0B6070471FB501F09AF81FBDA1
:1002100010B510BD00F031F81146FFF7F5FF01F001
:100220004DF800F04FF803B4FFF7F2FF03BC00F005
:1002300057F800000948804709480047FEE7FEE7F5
:10024000FEE7FEE7FEE7FEE7FEE7FEE7FEE7FEE786
:1002500004480549054A064B70470000A9120008EA
:1002600095010008F8000020F8060020F8020020A0
:10027000F8020020704770477047754600F02CF870
:10028000AE4605006946534620F00700854618B083
:1002900020B5FFF7DDFFBDE820404FF000064FF02E
:1002A00000074FF000084FF0000BAC46ACE8C00967
:1002B000ACE8C009ACE8C009ACE8C00921F007010E
:1002C0008D46704710B50446AFF300802046BDE868
:1002D0001040FFF7A8BF0000004870471000002042
:1002E00001491820ABBEFEE726000200704700005F
:1002F00080B540F27000C2F20000006838B1FFE73C
:1003000040F27000C2F200000068804700E0FFE7A2
:1003100042F20801C4F20101086840F08040086020
:1003200080BD000080B540F27800C2F20000006895
:1003300038B1FFE740F27800C2F200000068804761
:1003400000E0FFE743F61441C4F20101086840F001
:100350000100086080BD000080B540F27C00C2F260
:100360000000006838B1FFE740F27C00C2F20000F4
:100370000068804700E0FFE743F61441C4F2010142
:10038000086840F00200086080BD000080B540F2BF
:100390008000C2F20000006838B1FFE740F2800040
:1003A000C2F200000068804700E0FFE743F6144116
:1003B000C4F20101086840F00400086080BD00003C
:1003C00080B540F28400C2F20000006838B1FFE757
:1003D00040F28400C2F200000068804700E0FFE7BE
:1003E00043F61441C4F20101086840F008000860B7
:1003F00080BD000080B540F28800C2F200000068B5
:1004000038B1FFE740F28800C2F200000068804780
:1004100000E0FFE743F61441C4F20101086840F030
:100420001000086080BD000081B08DF803009DF8C9
:100430000310012000FA01F343F60042C4F2010266
:100440001168194311609DF8031000FA01F243F698
:100450000441C4F2010108689043086001B070478C
:1004600083B08DF80B000191019808B9FFE730E0E7
:100470009DF80B0001460091042828D80099DFE878
:1004800001F0030A11181F00019840F27801C2F22E
:10049000000108601CE0019840F27C01C2F20001FA
:1004A000086015E0019840F28001C2F20001086086
:1004B0000EE0019840F28401C2F20001086007E0FA
:1004C000019840F28801C2F20001086000E0FFE7F5
:1004D000FFE703B07047000082B08DF807008DF889
:1004E00006109DF806000146009140B1FFE7009814
:1004F00001281CD0FFE70098022830D047E09DF883
:100500000710012000FA01F343F60C42C4F2010285
:100510001168994311609DF8071000FA01F243F643
:100520000841C4F2010108681043086030E09DF8FA
:100530000710012000FA01F343F60C42C4F2010255
:100540001168194311609DF8071000FA01F243F693
:100550000841C4F2010108689043086018E09DF862
:100560000710012000FA01F343F60C42C4F2010225
:100570001168194311609DF8071000FA01F243F663
:100580000841C4F2010108681043086000E0FFE779
:1005900002B0704781B08DF803009DF80310012070
:1005A00000FA01F243F61041C4F201010868104359
:1005B000086001B07047000083B0029000208DF801
:1005C0000700029820B9FFE703208DF807004BE0F1
:1005D0000298007801460091052840D80099DFE88C
:1005E00001F0030C16202A3402984178012088403B
:1005F0001821C4F20201086035E002984178012018
:10060000884040F21841C4F2020108602BE00298D1
:1006100041780120884040F61801C4F202010860C8
:1006200021E0029841780120884040F61841C4F248
:100630000201086017E0029841780120884041F2E9
:100640001801C4F2020108600DE00298417801200F
:10065000884041F61841C4F20201086003E002201C
:100660008DF80700FFE7FFE79DF8070003B070472C
:1006700085B003908DF80B1000208DF80A000398C8
:1006800020B9FFE703208DF80A00F3E09DF80B0086
:10069000102808DBFFE707208DF80A009DF80A0004
:1006A0008DF81300EBE00398407807286ADCFFE739
:1006B000039800780146019105285ED80199DFE88A
:1006C00001F00311202F3E4D9DF80B00039949784E
:1006D000890000FA01F22021C4F2020108681043E7
:1006E00008604EE09DF80B0003994978890000FAF4
:1006F00001F240F22041C4F2020108681043086090
:100700003FE09DF80B0003994978890000FA01F257
:1007100040F62001C4F2020108681043086030E08E
:100720009DF80B0003994978890000FA01F240F620
:100730002041C4F2020108681043086021E09DF8DE
:100740000B0003994978890000FA01F241F2200177
:10075000C4F2020108681043086012E09DF80B0023
:1007600003994978890000FA01F241F62041C4F268
:10077000020108681043086003E002208DF80A00B7
:10078000FFE775E00398407808286FDBFFE70398E0
:1007900040780F286ADCFFE7039800780146009153
:1007A00005285ED80099DFE801F00311202F3E4DA7
:1007B0009DF80B0003994978890000FA01F2242181
:1007C000C4F202010868104308604EE09DF80B0077
:1007D00003994978890000FA01F240F22441C4F2F9
:1007E00002010868104308603FE09DF80B00039980
:1007F0004978890000FA01F240F62401C4F20201AE
:1008000008681043086030E09DF80B0003994978B0
:10081000890000FA01F240F62441C4F2020108689E
:100820001043086021E09DF80B0003994978890086
:1008300000FA01F241F22401C4F2020108681043F7
:10084000086012E09DF80B0003994978890000FACE
:1008500001F241F62441C4F2020108681043086025
:1008600003E002208DF80A00FFE700E0FFE7FFE762
:10087000FFE7FFE79DF80A008DF81300FFE79DF8FA
:10088000130005B07047000088B0069000208DF876
:100890001700069820B9FFE703208DF81700FCE247
:1008A000069940F28D00C2F200000A78497800EB08
:1008B0000210405C012808D1FFE709208DF81700DD
:1008C0009DF817008DF81F00ECE2069800780146AD
:1008D0000491052800F277800499DFE801F0031500
:1008E000283B4E6143F63000C4F202000068C007A6
:1008F00008B1FFE707E006208DF817009DF8170004
:100900008DF81F00CEE262E043F63000C4F2020030
:1009100000684008C00708B1FFE707E006208DF82F
:1009200017009DF817008DF81F00BBE24FE043F65B
:100930003000C4F2020000688008C00708B1FFE779
:1009400007E006208DF817009DF817008DF81F00AE
:10095000A8E23CE043F63000C4F202000068C008A0
:10096000C00708B1FFE707E006208DF817009DF8E3
:1009700017008DF81F0095E229E043F63000C4F21D
:10098000020000680009C00708B1FFE707E0062081
:100990008DF817009DF817008DF81F0082E216E011
:1009A00043F63000C4F202000068C009C00708B175
:1009B000FFE707E006208DF817009DF817008DF877
:1009C0001F006FE203E002208DF81700FFE7069892
:1009D000007801460391052800F28F800399DFE833
:1009E00001F0031930475E750698407841000320F6
:1009F00000FA01F20021C4F2020108689043086085
:100A0000069842788078520000FA02F20868104393
:100A1000086076E0069840784100032000FA01F271
:100A200040F20041C4F20201086890430860069851
:100A300042788078520000FA02F208681043086099
:100A40005FE0069840784100032000FA01F240F68A
:100A50000001C4F2020108689043086006984278D9
:100A60008078520000FA02F208681043086048E0FB
:100A7000069840784100032000FA01F240F6004158
:100A8000C4F20201086890430860069842788078B2
:100A9000520000FA02F208681043086031E006983C
:100AA00040784100032000FA01F241F20001C4F253
:100AB00002010868904308600698427880785200E6
:100AC00000FA02F20868104308601AE006984078BD
:100AD0004100032000FA01F241F60041C4F2020194
:100AE000086890430860069842788078520000FABF
:100AF00002F208681043086003E002208DF8170036
:100B0000FFE706988078002840F09C80FFE7069871
:100B1000007801460291052800F28F800299DFE8F3
:100B200001F0031930475E750698407841000320B4
:100B300000FA01F20C21C4F2020108689043086037
:100B4000069842784079520000FA02F20868104391
:100B5000086076E0069840784100032000FA01F230
:100B600040F20C41C4F20201086890430860069804
:100B700042784079520000FA02F208681043086097
:100B80005FE0069840784100032000FA01F240F649
:100B90000C01C4F20201086890430860069842788C
:100BA0004079520000FA02F208681043086048E0F9
:100BB000069840784100032000FA01F240F60C410B
:100BC000C4F20201086890430860069842784079B0
:100BD000520000FA02F208681043086031E00698FB
:100BE00040784100032000FA01F241F20C01C4F206
:100BF00002010868904308600698427840795200E4
:100C000000FA02F20868104308601AE0069840787B
:100C10004100032000FA01F241F60C41C4F2020146
:100C2000086890430860069842784079520000FABC
:100C300002F208681043086003E002208DF81700F4
:100C4000FFE728E10698007801460191052800F2A7
:100C500083800199DFE801F003172C41566B069859
:100C60004178012000FA01F20421C4F2020108686F
:100C70009043086006984278C07800FA02F208684B
:100C8000104308606CE006984178012000FA01F2F8
:100C900040F20441C4F202010868904308600698DB
:100CA0004278C07800FA02F208681043086057E002
:100CB00006984178012000FA01F240F60401C4F2DE
:100CC000020108689043086006984278C07800FAEC
:100CD00002F208681043086042E00698417801205B
:100CE00000FA01F240F60441C4F2020108689043A0
:100CF000086006984278C07800FA02F2086810434B
:100D000008602DE006984178012000FA01F241F2D6
:100D10000401C4F202010868904308600698427812
:100D2000C07800FA02F208681043086018E00698DC
:100D30004178012000FA01F241F60441C4F20201B7
:100D400008689043086006984278C07800FA02F27A
:100D500008681043086003E002208DF81700FFE7E1
:100D60000698007801460091052800F28F800099CE
:100D7000DFE801F0031930475E75069840784100BE
:100D8000032000FA01F20821C4F20201086890432E
:100D90000860069842780079520000FA02F208686A
:100DA0001043086076E0069840784100032000FA7E
:100DB00001F240F20841C4F2020108689043086061
:100DC000069842780079520000FA02F2086810434F
:100DD00008605FE0069840784100032000FA01F2C5
:100DE00040F60801C4F202010868904308600698C2
:100DF00042780079520000FA02F208681043086055
:100E000048E0069840784100032000FA01F240F6DD
:100E10000841C4F2020108689043086006984278CD
:100E20000079520000FA02F208681043086031E0CD
:100E3000069840784100032000FA01F241F20801CF
:100E4000C4F202010868904308600698427800796D
:100E5000520000FA02F20868104308601AE006988F
:100E600040784100032000FA01F241F60841C4F243
:100E700002010868904308600698427800795200A1
:100E800000FA02F208681043086003E002208DF8BF
:100E90001700FFE7FFE7FFE7FFE79DF817008DF872
:100EA0001F00FFE79DF81F0008B0704781B08DF864
:100EB000030000208DF802009DF803001F280ADCC3
:100EC000FFE79DF80310012088404EF20011CEF29A
:100ED0000001086015E09DF803003B280CDCFFE7EB
:100EE0009DF80300A0F12001012088404EF204117A
:100EF000CEF20001086003E001208DF80200FFE758
:100F0000FFE79DF8020001B0704700004EF6305137
:100F1000CEF200010868052262F30A200860002072
:100F20007047000081B08DF803008DF802108DF835
:100F3000012000208DF800009DF8020080019DF83E
:100F4000011040EA01109DF803104EF20042CEF26B
:100F5000000288549DF8000001B0704780B540F24F
:100F60000600C2F20000FFF727FB80BD81B08DF8BC
:100F700003009DF803001F280DDCFFE79DF8031018
:100F8000012000FA01F243F63001C4F202010868C0
:100F9000104308604EE09DF80300202814DBFFE7B3
:100FA0009DF803003F280FDCFFE79DF80300A0F148
:100FB0002001012000FA01F243F63401C4F20201DB
:100FC00008681043086034E09DF80300402814DBF3
:100FD000FFE79DF803005F280FDCFFE79DF80300A3
:100FE000A0F14001012000FA01F243F64001C4F2F1
:100FF00002010868104308601AE09DF803006028A9
:1010000014DBFFE79DF803007F280FDCFFE79DF866
:101010000300A0F16001012000FA01F243F644014F
:10102000C4F2020108681043086000E0FFE7FFE730
:10103000FFE7FFE701B0704782B043F60801C4F252
:10104000020101910020086081200860086820F0FA
:10105000F0000860086820F4E0500860086820F498
:101060006040086043F60001C4F20201086840F0E5
:1010700001000860FFE743F60000C4F202000068C8
:1010800041080020C907009051B9FFE740F20C0069
:10109000C2F200000078002818BF01200090FFE78E
:1010A0000098C00740B1FFE740F20C01C2F2000116
:1010B000087801380870DEE743F60001C4F2020147
:1010C000086840F00200086043F60801C4F202011B
:1010D000086820F00300086002B0704781B08DF806
:1010E00003008DF802109DF80300032818DCFFE7C9
:1010F0009DF8030081000F2000FA01F243F6080179
:10110000C4F201010868904308609DF802009DF850
:101110000320920000FA02F208681043086075E0AC
:101120009DF80300042821DBFFE79DF80300072852
:101130001CDCFFE79DF803006FF00F0202EB80015B
:101140000F2000FA01F343F60C01C4F20101086814
:10115000984308609DF802009DF8033002EB83027B
:1011600000FA02F20868104308604EE09DF80300A0
:10117000082821DBFFE79DF803000B281CDCFFE7B4
:101180009DF803006FF01F0202EB80010F2000FAB0
:1011900001F343F61001C4F20101086898430860A6
:1011A0009DF802009DF8033002EB830200FA02F280
:1011B00008681043086027E09DF803000C2821DB35
:1011C000FFE79DF803000F281CDCFFE79DF80300F4
:1011D0006FF02F0202EB80010F2000FA01F343F6BB
:1011E0001401C4F201010868984308609DF80200E8
:1011F0009DF8033002EB830200FA02F20868104304
:10120000086000E0FFE7FFE7FFE7FFE701B0704796
:101210004EF21001CEF20001086820F001000860D3
:10122000086820F0020008607047000080B582B0B6
:101230004EF21400CEF20000006840F2F001C2F25B
:101240000001086040F27400C2F20000006838B388
:10125000FFE740F28C00C2F20000007801280DD1B7
:10126000FFE740F27400C2F200000190006880477E
:10127000019900200860FFF7CBFF10E040F28C00DE
:10128000C2F200000078022807D1FFE740F27400A4
:10129000C2F200000068804700E0FFE7FFE700E0DF
:1012A000FFE702B080BD00004EF68851CEF200018B
:1012B000086840F4700008607047000080B584B092
:1012C000002002900390FFF7B7FE0298FFF74EFE52
:1012D0000120FFF74BFE6E20FFF748FE40F20600AC
:1012E000C2F20000FFF7D0FA40F20000C2F20000A4
:1012F0000090FFF7C9FA02990098FFF7B9F9FFF7D4
:1013000005FE02990846FFF7E9FE029840F65D7176
:10131000C0F60001FFF7A4F802990846FFF7DCF8D1
:101320000620019002221146FFF7FCFD0198FFF70D
:10133000BDFD0298FFF778F80298FFF72BF9FFE759
:10134000FEE7F1EE100A4FF6FF71C0F2C03120EA5D
:10135000010040F04070E1EE100A70477C13000875
:101360000000002010000000D00100088C130008CD
:1013700010000020E8060000EC0100080000020058
:0C1380000302010C0100030264000000E5
:0400000508000235B8
:00000001FF
